:020000020000FC
:02000000B8C383
:02002C00D9C336
:02005400B9C32E
:1006D00091C095C094C096C095C099C098C09CC068
:1006E0009BC09FC09EC0A2C0A1C0A5C0A4C0A6C000
:1006F000A5C0A9C0A8C0ACC0ABC0AFC0AEC0B2C09E
:10070000B1C0B5C0B4C0B8C0B7C0BBC0BAC0C0C02B
:10071000BFC0C5C0C4C0C3C0C9C0C8C0CEC0CDC0A2
:10072000D3C0D2C0D8C0D7C0DDC0DCC0E2C0E1C0F9
:10073000E7C0E6C0ECC0EBC0F1C0F0C0F6C0F5C049
:10074000FBC0FAC000C1FFC005C104C10AC109C194
:100750000FC10EC114C113C119C118C11EC11DC1E1
:1007600023C122C128C127C12DC12CC132C131C131
:1007700037C19DE0909381009DE39093890099E0BB
:100780009093880092E090936F00909164009E7F18
:100790009093640090E490937C0090917E0091602F
:1007A00090937E009EEF97B99FEF94B99AB99FE816
:1007B00090937A0078949FEF9DBF98E09DBF93E05F
:1007C000909333008895FECFEFB7EF932091780098
:1007D00030917900F3E0E22F0995EF91EFBF189582
:1007E000EFB7EF9390917A00906490937A00EF9135
:1007F000EFBF1895CFEEC5B9D0E1D8B90895C6EED0
:10080000C5B90895CBEFC5B9D0E2D8B90895CFEEF8
:10081000C5B9D0E2D8B90895CEEEC5B9D0E3D8B9FC
:100820000895CDEEC5B9D0E3D8B90895CDEFC5B9D7
:10083000D0E3D8B90895C7EEC5B90895CFEFC5B9CB
:10084000D0E3D8B90895C7EEC5B9D0E3D8B90895B3
:10085000CFEEC5B9DAE1D8B90895C6EEC5B9DAE088
:10086000D8B90895CBEFC5B9DAE2D8B90895CFEE7B
:10087000C5B9DAE2D8B90895C6EEC5B9DAE3D8B990
:100880000895B6E0BBB9CDEEC5B9DAE3D8B908959D
:10089000B6E0BBB9CDEFC5B9DAE3D8B90895B6E093
:1008A000BBB9C7E0C5B9DAE0D8B90895B6E0BBB9BD
:1008B000CFE1C5B9DAE3D8B90895B6E0BBB9C7E06E
:1008C000C5B9DAE3D8B90895BBE5BBB9CFE1C5B97D
:1008D000DCE1D8B90895BBE5BBB9C6E0C5B9DCE039
:1008E000D8B90895BBE5BBB9CBE1C5B9DCE2D8B94D
:1008F0000895B8E5BBB9CFE0C5B9DCE2D8B9089531
:10090000BBE5BBB9C6E0C5B9DCE3D8B90895BBE522
:10091000BBB9CDE1C5B9DCE3D8B90895BBE5BBB936
:10092000CDE1C5B9DCE3D8B90895B8E5BBB9C7E0F6
:10093000C5B9DCE0D8B90895B8E5BBB9CFE1C5B910
:10094000DCE3D8B90895B8E5BBB9C7E0C5B9DCE3C5
:10095000D8B90895B8E4BBB9CFE1C5B9DEE1D8B9DB
:100960000895B8E4BBB9C6E0C5B9DEE0D8B90895CA
:10097000B8E4BBB9CBE1C5B9DEE2D8B90895B8E4B3
:10098000BBB9CFE0C5B9DEE2D8B90895B8E4BBB9C8
:10099000C6E0C5B9DEE3D8B90895B8E4BBB9CDE087
:1009A000C5B9DEE3D8B90895B8E4BBB9CDE1C5B99E
:1009B000DEE3D8B90895B8E4BBB9C7E0C5B9DEE055
:1009C000D8B90895B8E4BBB9CFE1C5B9DEE3D8B969
:1009D0000895B8E4BBB9C7E0C5B9DEE3D8B9089556
:0E09E000B0E6BBB9CFE1C5B9DAE1D8B90895E8
:00000001FF
